{
	"contracts/MockUsdOracle.sol": {
		"MockUsdOracle": {
			"abi": [
				{
					"inputs": [
						{
							"internalType": "address",
							"name": "_wbnb",
							"type": "address"
						},
						{
							"internalType": "address",
							"name": "_usdt",
							"type": "address"
						},
						{
							"internalType": "address",
							"name": "_usdc",
							"type": "address"
						}
					],
					"stateMutability": "nonpayable",
					"type": "constructor"
				},
				{
					"inputs": [],
					"name": "quoteTokens",
					"outputs": [
						{
							"internalType": "address",
							"name": "",
							"type": "address"
						},
						{
							"internalType": "address",
							"name": "",
							"type": "address"
						},
						{
							"internalType": "address",
							"name": "",
							"type": "address"
						}
					],
					"stateMutability": "view",
					"type": "function"
				},
				{
					"inputs": [
						{
							"internalType": "address",
							"name": "quoteToken",
							"type": "address"
						},
						{
							"internalType": "uint256",
							"name": "amount",
							"type": "uint256"
						}
					],
					"name": "toUsd",
					"outputs": [
						{
							"internalType": "uint256",
							"name": "usd18",
							"type": "uint256"
						}
					],
					"stateMutability": "view",
					"type": "function"
				},
				{
					"inputs": [],
					"name": "usdc",
					"outputs": [
						{
							"internalType": "address",
							"name": "",
							"type": "address"
						}
					],
					"stateMutability": "view",
					"type": "function"
				},
				{
					"inputs": [],
					"name": "usdt",
					"outputs": [
						{
							"internalType": "address",
							"name": "",
							"type": "address"
						}
					],
					"stateMutability": "view",
					"type": "function"
				},
				{
					"inputs": [],
					"name": "wbnb",
					"outputs": [
						{
							"internalType": "address",
							"name": "",
							"type": "address"
						}
					],
					"stateMutability": "view",
					"type": "function"
				}
			],
			"devdoc": {
				"kind": "dev",
				"methods": {},
				"version": 1
			},
			"evm": {
				"assembly": "    /* \"contracts/MockUsdOracle.sol\":58:776  contract MockUsdOracle {... */\n  mstore(0x40, 0xe0)\n    /* \"contracts/MockUsdOracle.sol\":193:307  constructor(address _wbnb, address _usdt, address _usdc) {... */\n  callvalue\n  dup1\n  iszero\n  tag_1\n  jumpi\n  revert(0x00, 0x00)\ntag_1:\n  pop\n  mload(0x40)\n  sub(codesize, bytecodeSize)\n  dup1\n  bytecodeSize\n  dup4\n  codecopy\n  dup2\n  add\n  0x40\n  dup2\n  swap1\n  mstore\n  tag_2\n  swap2\n  tag_3\n  jump\t// in\ntag_2:\n  sub(shl(0xa0, 0x01), 0x01)\n    /* \"contracts/MockUsdOracle.sol\":260:272  wbnb = _wbnb */\n  swap3\n  dup4\n  and\n  0x80\n  mstore\n    /* \"contracts/MockUsdOracle.sol\":274:286  usdt = _usdt */\n  swap1\n  dup3\n  and\n  0xa0\n  mstore\n    /* \"contracts/MockUsdOracle.sol\":288:300  usdc = _usdc */\n  and\n  0xc0\n  mstore\n    /* \"contracts/MockUsdOracle.sol\":58:776  contract MockUsdOracle {... */\n  jump(tag_8)\n    /* \"#utility.yul\":14:191   */\ntag_7:\n    /* \"#utility.yul\":93:106   */\n  dup1\n  mload\n  sub(shl(0xa0, 0x01), 0x01)\n    /* \"#utility.yul\":135:166   */\n  dup2\n  and\n    /* \"#utility.yul\":125:167   */\n  dup2\n  eq\n    /* \"#utility.yul\":115:185   */\n  tag_10\n  jumpi\n    /* \"#utility.yul\":181:182   */\n  0x00\n    /* \"#utility.yul\":178:179   */\n  0x00\n    /* \"#utility.yul\":171:183   */\n  revert\n    /* \"#utility.yul\":115:185   */\ntag_10:\n    /* \"#utility.yul\":14:191   */\n  swap2\n  swap1\n  pop\n  jump\t// out\n    /* \"#utility.yul\":196:574   */\ntag_3:\n    /* \"#utility.yul\":284:290   */\n  0x00\n    /* \"#utility.yul\":292:298   */\n  0x00\n    /* \"#utility.yul\":300:306   */\n  0x00\n    /* \"#utility.yul\":353:355   */\n  0x60\n    /* \"#utility.yul\":341:350   */\n  dup5\n    /* \"#utility.yul\":332:339   */\n  dup7\n    /* \"#utility.yul\":328:351   */\n  sub\n    /* \"#utility.yul\":324:356   */\n  slt\n    /* \"#utility.yul\":321:373   */\n  iszero\n  tag_12\n  jumpi\n    /* \"#utility.yul\":369:370   */\n  0x00\n    /* \"#utility.yul\":366:367   */\n  0x00\n    /* \"#utility.yul\":359:371   */\n  revert\n    /* \"#utility.yul\":321:373   */\ntag_12:\n    /* \"#utility.yul\":392:432   */\n  tag_13\n    /* \"#utility.yul\":422:431   */\n  dup5\n    /* \"#utility.yul\":392:432   */\n  tag_7\n  jump\t// in\ntag_13:\n    /* \"#utility.yul\":382:432   */\n  swap3\n  pop\n    /* \"#utility.yul\":451:500   */\n  tag_14\n    /* \"#utility.yul\":496:498   */\n  0x20\n    /* \"#utility.yul\":485:494   */\n  dup6\n    /* \"#utility.yul\":481:499   */\n  add\n    /* \"#utility.yul\":451:500   */\n  tag_7\n  jump\t// in\ntag_14:\n    /* \"#utility.yul\":441:500   */\n  swap2\n  pop\n    /* \"#utility.yul\":519:568   */\n  tag_15\n    /* \"#utility.yul\":564:566   */\n  0x40\n    /* \"#utility.yul\":553:562   */\n  dup6\n    /* \"#utility.yul\":549:567   */\n  add\n    /* \"#utility.yul\":519:568   */\n  tag_7\n  jump\t// in\ntag_15:\n    /* \"#utility.yul\":509:568   */\n  swap1\n  pop\n    /* \"#utility.yul\":196:574   */\n  swap3\n  pop\n  swap3\n  pop\n  swap3\n  jump\t// out\ntag_8:\n    /* \"contracts/MockUsdOracle.sol\":58:776  contract MockUsdOracle {... */\n  mload(0x80)\n  mload(0xa0)\n  mload(0xc0)\n  codecopy(0x00, dataOffset(sub_0), dataSize(sub_0))\n  0x00\n  assignImmutable(\"0x52f1a9b320cab38e5da8a8f97989383aab0a49165fc91c737310e4f7e9821021\")\n  0x00\n  assignImmutable(\"0xceebf77a833b30520287ddd9478ff51abbdffa30aa90a8d655dba0e8a79ce0c1\")\n  0x00\n  assignImmutable(\"0x2a80e1ef1d7842f27f2e6be0972bb708b9a135c38860dbe73c27c3486c34f4de\")\n  return(0x00, dataSize(sub_0))\nstop\n\nsub_0: assembly {\n        /* \"contracts/MockUsdOracle.sol\":58:776  contract MockUsdOracle {... */\n      mstore(0x40, 0x80)\n      callvalue\n      dup1\n      iszero\n      tag_1\n      jumpi\n      revert(0x00, 0x00)\n    tag_1:\n      pop\n      jumpi(tag_2, lt(calldatasize, 0x04))\n      shr(0xe0, calldataload(0x00))\n      dup1\n      0x2f48ab7d\n      eq\n      tag_3\n      jumpi\n      dup1\n      0x3e413bee\n      eq\n      tag_4\n      jumpi\n      dup1\n      0x52118afc\n      eq\n      tag_5\n      jumpi\n      dup1\n      0x7b2d915b\n      eq\n      tag_6\n      jumpi\n      dup1\n      0x8d72647e\n      eq\n      tag_7\n      jumpi\n    tag_2:\n      revert(0x00, 0x00)\n        /* \"contracts/MockUsdOracle.sol\":122:151  address public immutable usdt */\n    tag_3:\n      tag_8\n      immutable(\"0xceebf77a833b30520287ddd9478ff51abbdffa30aa90a8d655dba0e8a79ce0c1\")\n      dup2\n      jump\n    tag_8:\n      mload(0x40)\n      sub(shl(0xa0, 0x01), 0x01)\n        /* \"#utility.yul\":178:210   */\n      swap1\n      swap2\n      and\n        /* \"#utility.yul\":160:211   */\n      dup2\n      mstore\n        /* \"#utility.yul\":148:150   */\n      0x20\n        /* \"#utility.yul\":133:151   */\n      add\n        /* \"contracts/MockUsdOracle.sol\":122:151  address public immutable usdt */\n    tag_10:\n      mload(0x40)\n      dup1\n      swap2\n      sub\n      swap1\n      return\n        /* \"contracts/MockUsdOracle.sol\":157:186  address public immutable usdc */\n    tag_4:\n      tag_8\n      immutable(\"0x52f1a9b320cab38e5da8a8f97989383aab0a49165fc91c737310e4f7e9821021\")\n      dup2\n      jump\n        /* \"contracts/MockUsdOracle.sol\":434:774  function toUsd(address quoteToken, uint256 amount) external view returns (uint256 usd18) {... */\n    tag_5:\n      tag_15\n      tag_16\n      calldatasize\n      0x04\n      tag_17\n      jump\t// in\n    tag_16:\n      tag_18\n      jump\t// in\n    tag_15:\n      mload(0x40)\n        /* \"#utility.yul\":727:752   */\n      swap1\n      dup2\n      mstore\n        /* \"#utility.yul\":715:717   */\n      0x20\n        /* \"#utility.yul\":700:718   */\n      add\n        /* \"contracts/MockUsdOracle.sol\":434:774  function toUsd(address quoteToken, uint256 amount) external view returns (uint256 usd18) {... */\n      tag_10\n        /* \"#utility.yul\":581:758   */\n      jump\n        /* \"contracts/MockUsdOracle.sol\":313:428  function quoteTokens() external view returns (address, address, address) {... */\n    tag_6:\n      0x40\n      dup1\n      mload\n      sub(shl(0xa0, 0x01), 0x01)\n        /* \"contracts/MockUsdOracle.sol\":404:408  wbnb */\n      immutable(\"0x2a80e1ef1d7842f27f2e6be0972bb708b9a135c38860dbe73c27c3486c34f4de\")\n        /* \"#utility.yul\":983:1015   */\n      dup2\n      and\n        /* \"#utility.yul\":965:1016   */\n      dup3\n      mstore\n        /* \"contracts/MockUsdOracle.sol\":410:414  usdt */\n      immutable(\"0xceebf77a833b30520287ddd9478ff51abbdffa30aa90a8d655dba0e8a79ce0c1\")\n        /* \"#utility.yul\":1052:1084   */\n      dup2\n      and\n        /* \"#utility.yul\":1047:1049   */\n      0x20\n        /* \"#utility.yul\":1032:1050   */\n      dup4\n      add\n        /* \"#utility.yul\":1025:1085   */\n      mstore\n        /* \"contracts/MockUsdOracle.sol\":416:420  usdc */\n      immutable(\"0x52f1a9b320cab38e5da8a8f97989383aab0a49165fc91c737310e4f7e9821021\")\n        /* \"#utility.yul\":1121:1153   */\n      and\n        /* \"#utility.yul\":1101:1119   */\n      swap2\n      dup2\n      add\n        /* \"#utility.yul\":1094:1154   */\n      swap2\n      swap1\n      swap2\n      mstore\n        /* \"#utility.yul\":953:955   */\n      0x60\n        /* \"#utility.yul\":938:956   */\n      add\n        /* \"contracts/MockUsdOracle.sol\":313:428  function quoteTokens() external view returns (address, address, address) {... */\n      tag_10\n        /* \"#utility.yul\":763:1160   */\n      jump\n        /* \"contracts/MockUsdOracle.sol\":87:116  address public immutable wbnb */\n    tag_7:\n      tag_8\n      immutable(\"0x2a80e1ef1d7842f27f2e6be0972bb708b9a135c38860dbe73c27c3486c34f4de\")\n      dup2\n      jump\n        /* \"contracts/MockUsdOracle.sol\":434:774  function toUsd(address quoteToken, uint256 amount) external view returns (uint256 usd18) {... */\n    tag_18:\n        /* \"contracts/MockUsdOracle.sol\":508:521  uint256 usd18 */\n      0x00\n        /* \"contracts/MockUsdOracle.sol\":551:555  wbnb */\n      immutable(\"0x2a80e1ef1d7842f27f2e6be0972bb708b9a135c38860dbe73c27c3486c34f4de\")\n      sub(shl(0xa0, 0x01), 0x01)\n        /* \"contracts/MockUsdOracle.sol\":537:555  quoteToken == wbnb */\n      and\n        /* \"contracts/MockUsdOracle.sol\":537:547  quoteToken */\n      dup4\n      sub(shl(0xa0, 0x01), 0x01)\n        /* \"contracts/MockUsdOracle.sol\":537:555  quoteToken == wbnb */\n      and\n      sub\n        /* \"contracts/MockUsdOracle.sol\":533:624  if (quoteToken == wbnb) {... */\n      tag_29\n      jumpi\n        /* \"contracts/MockUsdOracle.sol\":578:590  amount * 300 */\n      tag_30\n        /* \"contracts/MockUsdOracle.sol\":578:584  amount */\n      dup3\n        /* \"contracts/MockUsdOracle.sol\":587:590  300 */\n      0x012c\n        /* \"contracts/MockUsdOracle.sol\":578:590  amount * 300 */\n      tag_31\n      jump\t// in\n    tag_30:\n        /* \"contracts/MockUsdOracle.sol\":571:590  return amount * 300 */\n      swap1\n      pop\n      jump(tag_28)\n        /* \"contracts/MockUsdOracle.sol\":533:624  if (quoteToken == wbnb) {... */\n    tag_29:\n        /* \"contracts/MockUsdOracle.sol\":651:655  usdt */\n      immutable(\"0xceebf77a833b30520287ddd9478ff51abbdffa30aa90a8d655dba0e8a79ce0c1\")\n      sub(shl(0xa0, 0x01), 0x01)\n        /* \"contracts/MockUsdOracle.sol\":637:655  quoteToken == usdt */\n      and\n        /* \"contracts/MockUsdOracle.sol\":637:647  quoteToken */\n      dup4\n      sub(shl(0xa0, 0x01), 0x01)\n        /* \"contracts/MockUsdOracle.sol\":637:655  quoteToken == usdt */\n      and\n      eq\n        /* \"contracts/MockUsdOracle.sol\":637:677  quoteToken == usdt || quoteToken == usdc */\n      dup1\n      tag_32\n      jumpi\n      pop\n        /* \"contracts/MockUsdOracle.sol\":673:677  usdc */\n      immutable(\"0x52f1a9b320cab38e5da8a8f97989383aab0a49165fc91c737310e4f7e9821021\")\n      sub(shl(0xa0, 0x01), 0x01)\n        /* \"contracts/MockUsdOracle.sol\":659:677  quoteToken == usdc */\n      and\n        /* \"contracts/MockUsdOracle.sol\":659:669  quoteToken */\n      dup4\n      sub(shl(0xa0, 0x01), 0x01)\n        /* \"contracts/MockUsdOracle.sol\":659:677  quoteToken == usdc */\n      and\n      eq\n        /* \"contracts/MockUsdOracle.sol\":637:677  quoteToken == usdt || quoteToken == usdc */\n    tag_32:\n        /* \"contracts/MockUsdOracle.sol\":633:737  if (quoteToken == usdt || quoteToken == usdc) {... */\n      iszero\n      tag_33\n      jumpi\n      pop\n        /* \"contracts/MockUsdOracle.sol\":700:706  amount */\n      dup1\n        /* \"contracts/MockUsdOracle.sol\":693:706  return amount */\n      jump(tag_28)\n        /* \"contracts/MockUsdOracle.sol\":633:737  if (quoteToken == usdt || quoteToken == usdc) {... */\n    tag_33:\n        /* \"contracts/MockUsdOracle.sol\":746:767  revert(\"UNSUPPORTED\") */\n      mload(0x40)\n      shl(0xe5, 0x461bcd)\n      dup2\n      mstore\n        /* \"#utility.yul\":1637:1639   */\n      0x20\n        /* \"contracts/MockUsdOracle.sol\":746:767  revert(\"UNSUPPORTED\") */\n      0x04\n      dup3\n      add\n        /* \"#utility.yul\":1619:1640   */\n      mstore\n        /* \"#utility.yul\":1676:1678   */\n      0x0b\n        /* \"#utility.yul\":1656:1674   */\n      0x24\n      dup3\n      add\n        /* \"#utility.yul\":1649:1679   */\n      mstore\n      shl(0xaa, 0x155394d5541413d4951151)\n        /* \"#utility.yul\":1695:1713   */\n      0x44\n      dup3\n      add\n        /* \"#utility.yul\":1688:1729   */\n      mstore\n        /* \"#utility.yul\":1746:1764   */\n      0x64\n      add\n        /* \"contracts/MockUsdOracle.sol\":746:767  revert(\"UNSUPPORTED\") */\n      mload(0x40)\n      dup1\n      swap2\n      sub\n      swap1\n      revert\n        /* \"contracts/MockUsdOracle.sol\":434:774  function toUsd(address quoteToken, uint256 amount) external view returns (uint256 usd18) {... */\n    tag_28:\n      swap3\n      swap2\n      pop\n      pop\n      jump\t// out\n        /* \"#utility.yul\":222:576   */\n    tag_17:\n        /* \"#utility.yul\":290:296   */\n      0x00\n        /* \"#utility.yul\":298:304   */\n      0x00\n        /* \"#utility.yul\":351:353   */\n      0x40\n        /* \"#utility.yul\":339:348   */\n      dup4\n        /* \"#utility.yul\":330:337   */\n      dup6\n        /* \"#utility.yul\":326:349   */\n      sub\n        /* \"#utility.yul\":322:354   */\n      slt\n        /* \"#utility.yul\":319:371   */\n      iszero\n      tag_40\n      jumpi\n        /* \"#utility.yul\":367:368   */\n      0x00\n        /* \"#utility.yul\":364:365   */\n      0x00\n        /* \"#utility.yul\":357:369   */\n      revert\n        /* \"#utility.yul\":319:371   */\n    tag_40:\n        /* \"#utility.yul\":393:416   */\n      dup3\n      calldataload\n      sub(shl(0xa0, 0x01), 0x01)\n        /* \"#utility.yul\":445:476   */\n      dup2\n      and\n        /* \"#utility.yul\":435:477   */\n      dup2\n      eq\n        /* \"#utility.yul\":425:495   */\n      tag_41\n      jumpi\n        /* \"#utility.yul\":491:492   */\n      0x00\n        /* \"#utility.yul\":488:489   */\n      0x00\n        /* \"#utility.yul\":481:493   */\n      revert\n        /* \"#utility.yul\":425:495   */\n    tag_41:\n        /* \"#utility.yul\":514:519   */\n      swap5\n        /* \"#utility.yul\":566:568   */\n      0x20\n        /* \"#utility.yul\":551:569   */\n      swap4\n      swap1\n      swap4\n      add\n        /* \"#utility.yul\":538:570   */\n      calldataload\n      swap4\n      pop\n      pop\n      pop\n        /* \"#utility.yul\":222:576   */\n      jump\t// out\n        /* \"#utility.yul\":1165:1430   */\n    tag_31:\n        /* \"#utility.yul\":1238:1247   */\n      dup1\n      dup3\n      mul\n        /* \"#utility.yul\":1269:1278   */\n      dup2\n      iszero\n        /* \"#utility.yul\":1286:1301   */\n      dup3\n      dup3\n      div\n        /* \"#utility.yul\":1280:1302   */\n      dup5\n      eq\n        /* \"#utility.yul\":1266:1303   */\n      or\n        /* \"#utility.yul\":1256:1424   */\n      tag_28\n      jumpi\n        /* \"#utility.yul\":1346:1356   */\n      0x4e487b71\n        /* \"#utility.yul\":1341:1344   */\n      0xe0\n        /* \"#utility.yul\":1337:1357   */\n      shl\n        /* \"#utility.yul\":1334:1335   */\n      0x00\n        /* \"#utility.yul\":1327:1358   */\n      mstore\n        /* \"#utility.yul\":1381:1385   */\n      0x11\n        /* \"#utility.yul\":1378:1379   */\n      0x04\n        /* \"#utility.yul\":1371:1386   */\n      mstore\n        /* \"#utility.yul\":1409:1413   */\n      0x24\n        /* \"#utility.yul\":1406:1407   */\n      0x00\n        /* \"#utility.yul\":1399:1414   */\n      revert\n\n    auxdata: 0xa2646970667358221220df5aa3d09f55b162d3a20c230d6a851154e19de3833e5df2032c686836561a2564736f6c634300081e0033\n}\n",
				"bytecode": {
					"linkReferences": {},
					"object": "60e060405234801561000f575f5ffd5b5060405161042538038061042583398101604081905261002e91610066565b6001600160a01b0392831660805290821660a0521660c0526100a6565b80516001600160a01b0381168114610061575f5ffd5b919050565b5f5f5f60608486031215610078575f5ffd5b6100818461004b565b925061008f6020850161004b565b915061009d6040850161004b565b90509250925092565b60805160a05160c05161032e6100f75f395f818160a201528181610140015261022001525f8181605e0152818161011801526101e501525f818160f3015281816101740152610199015261032e5ff3fe608060405234801561000f575f5ffd5b5060043610610055575f3560e01c80632f48ab7d146100595780633e413bee1461009d57806352118afc146100c45780637b2d915b146100e55780638d72647e1461016f575b5f5ffd5b6100807f000000000000000000000000000000000000000000000000000000000000000081565b6040516001600160a01b0390911681526020015b60405180910390f35b6100807f000000000000000000000000000000000000000000000000000000000000000081565b6100d76100d23660046102a0565b610196565b604051908152602001610094565b604080516001600160a01b037f0000000000000000000000000000000000000000000000000000000000000000811682527f0000000000000000000000000000000000000000000000000000000000000000811660208301527f00000000000000000000000000000000000000000000000000000000000000001691810191909152606001610094565b6100807f000000000000000000000000000000000000000000000000000000000000000081565b5f7f00000000000000000000000000000000000000000000000000000000000000006001600160a01b0316836001600160a01b0316036101e3576101dc8261012c6102d5565b905061029a565b7f00000000000000000000000000000000000000000000000000000000000000006001600160a01b0316836001600160a01b0316148061025457507f00000000000000000000000000000000000000000000000000000000000000006001600160a01b0316836001600160a01b0316145b1561026057508061029a565b60405162461bcd60e51b815260206004820152600b60248201526a155394d5541413d495115160aa1b604482015260640160405180910390fd5b92915050565b5f5f604083850312156102b1575f5ffd5b82356001600160a01b03811681146102c7575f5ffd5b946020939093013593505050565b808202811582820484141761029a57634e487b7160e01b5f52601160045260245ffdfea2646970667358221220df5aa3d09f55b162d3a20c230d6a851154e19de3833e5df2032c686836561a2564736f6c634300081e0033",
					"opcodes": "PUSH1 0xE0 PUSH1 0x40 MSTORE CALLVALUE DUP1 ISZERO PUSH2 0xF JUMPI PUSH0 PUSH0 REVERT JUMPDEST POP PUSH1 0x40 MLOAD PUSH2 0x425 CODESIZE SUB DUP1 PUSH2 0x425 DUP4 CODECOPY DUP2 ADD PUSH1 0x40 DUP2 SWAP1 MSTORE PUSH2 0x2E SWAP2 PUSH2 0x66 JUMP JUMPDEST PUSH1 0x1 PUSH1 0x1 PUSH1 0xA0 SHL SUB SWAP3 DUP4 AND PUSH1 0x80 MSTORE SWAP1 DUP3 AND PUSH1 0xA0 MSTORE AND PUSH1 0xC0 MSTORE PUSH2 0xA6 JUMP JUMPDEST DUP1 MLOAD PUSH1 0x1 PUSH1 0x1 PUSH1 0xA0 SHL SUB DUP2 AND DUP2 EQ PUSH2 0x61 JUMPI PUSH0 PUSH0 REVERT JUMPDEST SWAP2 SWAP1 POP JUMP JUMPDEST PUSH0 PUSH0 PUSH0 PUSH1 0x60 DUP5 DUP7 SUB SLT ISZERO PUSH2 0x78 JUMPI PUSH0 PUSH0 REVERT JUMPDEST PUSH2 0x81 DUP5 PUSH2 0x4B JUMP JUMPDEST SWAP3 POP PUSH2 0x8F PUSH1 0x20 DUP6 ADD PUSH2 0x4B JUMP JUMPDEST SWAP2 POP PUSH2 0x9D PUSH1 0x40 DUP6 ADD PUSH2 0x4B JUMP JUMPDEST SWAP1 POP SWAP3 POP SWAP3 POP SWAP3 JUMP JUMPDEST PUSH1 0x80 MLOAD PUSH1 0xA0 MLOAD PUSH1 0xC0 MLOAD PUSH2 0x32E PUSH2 0xF7 PUSH0 CODECOPY PUSH0 DUP2 DUP2 PUSH1 0xA2 ADD MSTORE DUP2 DUP2 PUSH2 0x140 ADD MSTORE PUSH2 0x220 ADD MSTORE PUSH0 DUP2 DUP2 PUSH1 0x5E ADD MSTORE DUP2 DUP2 PUSH2 0x118 ADD MSTORE PUSH2 0x1E5 ADD MSTORE PUSH0 DUP2 DUP2 PUSH1 0xF3 ADD MSTORE DUP2 DUP2 PUSH2 0x174 ADD MSTORE PUSH2 0x199 ADD MSTORE PUSH2 0x32E PUSH0 RETURN INVALID PUSH1 0x80 PUSH1 0x40 MSTORE CALLVALUE DUP1 ISZERO PUSH2 0xF JUMPI PUSH0 PUSH0 REVERT JUMPDEST POP PUSH1 0x4 CALLDATASIZE LT PUSH2 0x55 JUMPI PUSH0 CALLDATALOAD PUSH1 0xE0 SHR DUP1 PUSH4 0x2F48AB7D EQ PUSH2 0x59 JUMPI DUP1 PUSH4 0x3E413BEE EQ PUSH2 0x9D JUMPI DUP1 PUSH4 0x52118AFC EQ PUSH2 0xC4 JUMPI DUP1 PUSH4 0x7B2D915B EQ PUSH2 0xE5 JUMPI DUP1 PUSH4 0x8D72647E EQ PUSH2 0x16F JUMPI JUMPDEST PUSH0 PUSH0 REVERT JUMPDEST PUSH2 0x80 PUSH32 0x0 DUP2 JUMP JUMPDEST PUSH1 0x40 MLOAD PUSH1 0x1 PUSH1 0x1 PUSH1 0xA0 SHL SUB SWAP1 SWAP2 AND DUP2 MSTORE PUSH1 0x20 ADD JUMPDEST PUSH1 0x40 MLOAD DUP1 SWAP2 SUB SWAP1 RETURN JUMPDEST PUSH2 0x80 PUSH32 0x0 DUP2 JUMP JUMPDEST PUSH2 0xD7 PUSH2 0xD2 CALLDATASIZE PUSH1 0x4 PUSH2 0x2A0 JUMP JUMPDEST PUSH2 0x196 JUMP JUMPDEST PUSH1 0x40 MLOAD SWAP1 DUP2 MSTORE PUSH1 0x20 ADD PUSH2 0x94 JUMP JUMPDEST PUSH1 0x40 DUP1 MLOAD PUSH1 0x1 PUSH1 0x1 PUSH1 0xA0 SHL SUB PUSH32 0x0 DUP2 AND DUP3 MSTORE PUSH32 0x0 DUP2 AND PUSH1 0x20 DUP4 ADD MSTORE PUSH32 0x0 AND SWAP2 DUP2 ADD SWAP2 SWAP1 SWAP2 MSTORE PUSH1 0x60 ADD PUSH2 0x94 JUMP JUMPDEST PUSH2 0x80 PUSH32 0x0 DUP2 JUMP JUMPDEST PUSH0 PUSH32 0x0 PUSH1 0x1 PUSH1 0x1 PUSH1 0xA0 SHL SUB AND DUP4 PUSH1 0x1 PUSH1 0x1 PUSH1 0xA0 SHL SUB AND SUB PUSH2 0x1E3 JUMPI PUSH2 0x1DC DUP3 PUSH2 0x12C PUSH2 0x2D5 JUMP JUMPDEST SWAP1 POP PUSH2 0x29A JUMP JUMPDEST PUSH32 0x0 PUSH1 0x1 PUSH1 0x1 PUSH1 0xA0 SHL SUB AND DUP4 PUSH1 0x1 PUSH1 0x1 PUSH1 0xA0 SHL SUB AND EQ DUP1 PUSH2 0x254 JUMPI POP PUSH32 0x0 PUSH1 0x1 PUSH1 0x1 PUSH1 0xA0 SHL SUB AND DUP4 PUSH1 0x1 PUSH1 0x1 PUSH1 0xA0 SHL SUB AND EQ JUMPDEST ISZERO PUSH2 0x260 JUMPI POP DUP1 PUSH2 0x29A JUMP JUMPDEST PUSH1 0x40 MLOAD PUSH3 0x461BCD PUSH1 0xE5 SHL DUP2 MSTORE PUSH1 0x20 PUSH1 0x4 DUP3 ADD MSTORE PUSH1 0xB PUSH1 0x24 DUP3 ADD MSTORE PUSH11 0x155394D5541413D4951151 PUSH1 0xAA SHL PUSH1 0x44 DUP3 ADD MSTORE PUSH1 0x64 ADD PUSH1 0x40 MLOAD DUP1 SWAP2 SUB SWAP1 REVERT JUMPDEST SWAP3 SWAP2 POP POP JUMP JUMPDEST PUSH0 PUSH0 PUSH1 0x40 DUP4 DUP6 SUB SLT ISZERO PUSH2 0x2B1 JUMPI PUSH0 PUSH0 REVERT JUMPDEST DUP3 CALLDATALOAD PUSH1 0x1 PUSH1 0x1 PUSH1 0xA0 SHL SUB DUP2 AND DUP2 EQ PUSH2 0x2C7 JUMPI PUSH0 PUSH0 REVERT JUMPDEST SWAP5 PUSH1 0x20 SWAP4 SWAP1 SWAP4 ADD CALLDATALOAD SWAP4 POP POP POP JUMP JUMPDEST DUP1 DUP3 MUL DUP2 ISZERO DUP3 DUP3 DIV DUP5 EQ OR PUSH2 0x29A JUMPI PUSH4 0x4E487B71 PUSH1 0xE0 SHL PUSH0 MSTORE PUSH1 0x11 PUSH1 0x4 MSTORE PUSH1 0x24 PUSH0 REVERT INVALID LOG2 PUSH5 0x6970667358 0x22 SLT KECCAK256 0xDF GAS LOG3 0xD0 SWAP16 SSTORE 0xB1 PUSH3 0xD3A20C 0x23 0xD PUSH11 0x851154E19DE3833E5DF203 0x2C PUSH9 0x6836561A2564736F6C PUSH4 0x4300081E STOP CALLER "
				},
				"gasEstimates": {
					"creation": {
						"codeDepositCost": "162800",
						"executionCost": "infinite",
						"totalCost": "infinite"
					},
					"external": {
						"quoteTokens()": "infinite",
						"toUsd(address,uint256)": "infinite",
						"usdc()": "infinite",
						"usdt()": "infinite",
						"wbnb()": "infinite"
					}
				},
				"methodIdentifiers": {
					"quoteTokens()": "7b2d915b",
					"toUsd(address,uint256)": "52118afc",
					"usdc()": "3e413bee",
					"usdt()": "2f48ab7d",
					"wbnb()": "8d72647e"
				}
			},
			"storageLayout": {
				"storage": [],
				"types": null
			},
			"userdoc": {
				"kind": "user",
				"methods": {},
				"version": 1
			}
		}
	}
}